:100000000C9464000C948C000C948C000C948C0068
:100010000C948C000C948C000C948C000C94170E97
:100020000C948C000C948C000C948C000C94C105E6
:100030000C948C000C948C000C948C000C948C0010
:100040000C9440090C948C000C948C000C948C0043
:100050000C948C000C948C000C948C000C948C00F0
:100060000C9413080C948C0000000008000201009E
:100070000003040700000000000000000102040863
:100080001020408001020408102001020408102002
:10009000040404040404040402020202020203032E
:1000A00003030303000000002300260029000000D2
:1000B0000000250028002B0000000000240027007D
:1000C0002A000200DF00310711241FBECFEFD8E065
:1000D000DEBFCDBF11E0A0E0B1E0E4E0FEE102C090
:1000E00005900D92A236B107D9F723E0A2E6B1E060
:1000F00001C01D92AA33B207E1F710E0C8ECD0E0CE
:1001000004C02297FE010E94E80EC43CD107C9F743
:100110000E94760E0C94000F0C940000CF93DF9396
:1001200082E691E00E949F01EC0141E065E085E7F5
:1001300091E00E94CF02CA30D10534F46FE171E042
:1001400085E791E00E94260B4AE050E0BE0185E77A
:1001500091E00E94D20B41E067E085E791E00E94C8
:10016000CF0267E071E085E791E00E94260B41E055
:1001700068E085E791E00E94CF0282E691E00E946C
:10018000A3014AE050E0BC0185E791E0DF91CF9107
:100190000C94D20B44E060E085E791E00E94CF022E
:1001A00082E691E00E945101882319F069E071E034
:1001B00002C065E171E085E791E00C94260B8F9217
:1001C000AF92CF92EF920F9387E0882E96E0A92E00
:1001D00025E0C22E34E0E32E00E021E042E067E2B9
:1001E00085E791E00E94150482E691E00F91EF907F
:1001F000CF90AF908F900C94330120E044E064E105
:1002000085E791E00E94960440E050E063E085E7D6
:1002100091E00E94870361E085E791E00E949B03E3
:1002200085E791E00E94C80261E271E085E791E014
:100230000E94260B41E060E085E791E00E94CF023A
:100240006BE271E085E791E00C94260B61E085E7B5
:1002500091E00E949B0382E691E00E9485020E9449
:100260008E000C94CA00FC0184E190E091838083AD
:100270001382128216861786108A118A12861386B6
:1002800014861586168217821086118682E090E009
:100290009583848361E00E94500A60E087E00C94BB
:1002A000500A41E0FC01248135812130310509F0FB
:1002B00040E0842F08956115710531F077FD14C079
:1002C0006330710544F0089522E330E040E050E0EF
:1002D00066E071E006C022E330E040E050E06BE011
:1002E00072E084E00C94DA0B08950F931F93CF9380
:1002F000DF93EC018C819D810197E1F40E948A09D2
:100300000E851F8528893989061717072807390799
:1003100088F482E090E09D838C8384E190E099836F
:10032000888362E070E0CE01DF91CF911F910F9141
:100330000C945B01DF91CF911F910F910895FC0107
:1003400080819181089584E190E00895CF92DF92B9
:10035000EF92FF92CF93DF93EC010E948A0921E094
:10036000CA84DB84EC84FD84C616D706E806F90649
:1003700008F020E0822FDF91CF91FF90EF90DF9087
:10038000CF900895CF93DF93EC0161E070E00E947D
:100390005B010E948A096854744F8F4F9F4F6E878C
:1003A0007F87888B998B81E090E09D838C8361E0CF
:1003B00082E0DF91CF910C94890ACF93DF93EC0117
:1003C00061E082E00E94890A0E948A096E5C7F4F88
:1003D0008F4F9F4F6E837F8388879987DF91CF915F
:1003E0000895DF92EF92FF920F931F93CF93DF93C5
:1003F00000D000D000D0CDB7DEB78C01FC018481E5
:100400009581029731F4C8010E94A601D82E81116E
:1004100002C0D12C47C086E0E1E0F1E0DE01119698
:1004200001900D928A95E1F72AE330E043E050E035
:10043000BE016F5F7F4F7801F2E1EF0EF11CC70143
:100440000E94910524E130E042E95BE866E070E05B
:10045000C7010E944405C8010E94DD01F801208106
:10046000318121503109318320830E948A096853E8
:100470007F4F8F4F9F4FF8016287738784879587DF
:10048000208131811216130624F0C8010E94C20196
:1004900009C022E330E040E050E066E071E084E033
:1004A0000E94DA0B8D2D26960FB6F894DEBF0FBE94
:1004B000CDBFDF91CF911F910F91FF90EF90DF9013
:1004C000089560E082E00C94890A0F931F93CF9304
:1004D000DF93EC010E948A090E811F8128853985EE
:1004E000061717072807390758F48C819D81029752
:1004F00039F4CE01DF91CF911F910F910C946102DD
:10050000DF91CF911F910F910895CF93DF93EC016D
:100510000E947501CE010E94650287E00E94BF0A19
:100520009B838A83019729F4CE01DF91CF910C94AC
:10053000F101DF91CF91089508950895DC01ED91C7
:10054000FC910284F385E02D41E0099581E090E083
:100550000895FC011382128225E331E03183208368
:100560000895DC01ED91FC910084F185E02D6FEFA1
:100570000994DC01ED91FC910284F385E02D40E0CB
:10058000099461E00E94B90280ED97E00C94E109C2
:1005900062E00E94B90280ED97E00C94E109CF93EC
:1005A000DF93CDB7DEB728970FB6F894DEBF0FBE46
:1005B000CDBF1D8220E42E8334E13F8334E53887AC
:1005C00019822A8320E12B8320E52C83FC012781DB
:1005D000421710F04FEF420FFC01308550E0FE0152
:1005E000E40FF51F303121F4243011F4218101C0D2
:1005F0002581260F2068622F28960FB6F894DEBF5B
:100600000FBECDBFDF91CF910C94B902FC01658183
:10061000262F246025836C600C94B902CF93DF935E
:10062000EC01423018F08C8188608C834F8368879E
:10063000222329F0413019F48C8184608C8364E694
:1006400070E080E090E00E94B9096C8164FD31C0E7
:10065000E881F9810284F385E02D42E063E0CE0178
:10066000099584E991E10E94E109E881F981028418
:10067000F385E02D42E063E0CE01099584E991E144
:100680000E94E109E881F9810284F385E02D42E0CE
:1006900063E0CE01099586E990E00E94E109E881D6
:1006A000F9810284F385E02D42E062E0CE010995F4
:1006B00016C06062CE010E94B90284E991E10E94F5
:1006C000E1096C816062CE010E94B90286E990E086
:1006D0000E94E1096C816062CE010E94B9026C81C6
:1006E0006062CE010E94B90284E08D83CE010E9437
:1006F0000603CE010E94C10282E08E8366E0CE0135
:100700000E94B902CE01DF91CF910C94B10221E099
:1007100001C0220F6A95EAF7DC011C962C931C9706
:100720001A965C934E931997ED91FC910084F18594
:10073000E02D60E00994FC012485222399F0818555
:100740009285009719F4611105C006C0019721F444
:10075000611102C0258701C015866585CF010E96FF
:100760000C94E00408950F931F93CF93DF93EC0153
:100770008C01025F1F4F6B85C8010E94C304019763
:1007800061F461E0C8010E94B8041C8260E0C80105
:100790000E94E00481E090E002C080E090E0DF9100
:1007A000CF911F910F9108958F92AF92CF92EF92B8
:1007B0000F93CF93DF93CDB7DEB7FC016387148629
:1007C00015861286118681E0982F01C0990F4A95EF
:1007D000EAF7928B982F01C0990F2A95EAF7938B2D
:1007E000982F01C0990F0A95EAF7948B982F01C0B2
:1007F000990FEA94EAF7958B982F01C0990FCA9444
:10080000EAF7968B982F01C0990FAA94EAF7978B75
:1008100001C0880F8A94EAF7808FDF91CF910F9102
:10082000EF90CF90AF908F9008956F927F928F92BC
:10083000AF92CF92EF920F93CF93DF9300D01F929E
:10084000CDB7DEB73C012B834A8369830E94A9029E
:1008500085E491E0F30191838083C3010E960E94A9
:10086000B1042B814A816981C3010E94D4030F9096
:100870000F900F90DF91CF910F91EF90CF90AF90AD
:100880008F907F906F900895FF920F931F93CF9357
:10089000DF93EC01F62E8C01025F1F4F6A896F29EE
:1008A000C8010E94E0046A8960956F21C801DF9148
:1008B000CF911F910F91FF900C94E00420E030E065
:1008C00050E060FF05C0FC01E20FF31F7589572B54
:1008D00066952F5F3F4F2430310599F7413011F471
:1008E000FC014489FC016585652B642B0C94440450
:1008F0000F931F93CF93DF93EC01142F062F0F70EC
:10090000423011F440E00AC070E084E075956795CC
:100910008A95E1F7CE010E945E04412F602FCE013F
:10092000DF91CF911F910F910C945E040F931F9351
:10093000CF93DF9300D01F92CDB7DEB78C012B830E
:100940004A8369830E94B3032B814A816981C8016C
:100950000F900F900F90DF91CF911F910F910C94FA
:100960000E03FC0112828FEF81831082138208959F
:10097000FC018381882331F0611103C08FEF8183F3
:10098000089511820895CF93DF93EC016A838CE57B
:1009900092E00E94F70641E06A818CE592E00E94B5
:1009A0000E0791E0811101C090E09B838CE592E0FD
:1009B0000E94680688838B8190E0DF91CF91089533
:1009C000CF93DF93EC018B818823A9F089818095F7
:1009D000862388836A818CE592E00E9411076881F2
:1009E0008CE592E00E94B8068CE592E00E942E070A
:1009F000282F30E002C020E030E081E090E0232B9F
:100A000011F080E090E0DF91CF910895CB01E0E814
:100A1000F0E02081206820830C94E109CB01E0E81C
:100A2000F0E020812F7720830C94E109CF93DF93AE
:100A3000EB0110926F0061E089E00E94500A60E0D3
:100A400089E00E94890A9E01442737FD4095542F72
:100A500060E47FE180E090E00E94BC0E82E0809341
:100A6000800081E18093810030938700209386008D
:100A7000C90163E070E00E94860E70938900609364
:100A80008800DF91CF910895AF92BF92CF92DF920D
:100A9000EF92FF920F931F93CF93DF93EC016A01C4
:100AA0007B01590168E270E00E94160560E679E07A
:100AB000CE010E94060568E572E0CE010E940E0597
:100AC00080E290E08A199B0904C0CC0CDD1CEE1C6E
:100AD000FF1C8A95D2F700E010E00A151B05B4F45C
:100AE000F7FE03C060EB74E002C068E572E0CE017F
:100AF0000E94060568E572E0CE010E940E05CC0C4E
:100B0000DD1CEE1CFF1C0F5F1F4FE7CFDF91CF9165
:100B10001F910F91FF90EF90DF90CF90BF90AF901B
:100B20000895CF92DF92EF92FF920F931F93CF938E
:100B3000DF938C017B016A01B9010E941605E70170
:100B4000E12CF12CEC14FD047CF468817981C8015E
:100B5000E0FE03C00E940E0502C00E9406058FEF52
:100B6000E81AF80A2296EECF60E070E0C801DF9143
:100B7000CF911F910F91FF90EF90DF90CF900C9449
:100B80000E051F920F920FB60F9211242F933F93D1
:100B90004F935F936F937F938F939F93AF93BF9385
:100BA000EF93FF9380918E010E94BF0A20919101E3
:100BB000309192012F5F3F4F30939201209391012A
:100BC00090915B02943618F095E090938F0190918C
:100BD0008F019330B9F018F4923039F057C0943047
:100BE00059F1953009F44CC051C081114FC020918A
:100BF0009101309192012436310508F443C01092DE
:100C00005B021CC0813009F041C0E0915B0291E0C1
:100C10009E0F90935B02F0E0209191013091920140
:100C2000EE0FFF1FE257FE4F36832583109292018D
:100C30001092910194E021C0811117C0E0915B02F4
:100C400091E09E0F90935B02F0E020919101309132
:100C50009201EE0FFF1FE257FE4F3683258310925D
:100C600092011092910193E008C02091910130917E
:100C700092012536310550F095E090938F0106C022
:100C8000811104C0109292011092910190919001F3
:100C9000992329F0811102C02D9A01C02D98FF914E
:100CA000EF91BF91AF919F918F917F916F915F91E4
:100CB0004F913F912F910F900FBE0F901F9018955D
:100CC00080918C0290E020918D02821B9109089501
:100CD00020918D0280918C02281750F4E22FF0E0D1
:100CE000E257FD4F808190E02F5F20938D020895A1
:100CF0008FEF9FEF0895E0918D0280918C02E817AD
:100D000030F4F0E0E257FD4F808190E008958FEFDE
:100D10009FEF08950895CF92DF92EF92FF920F9385
:100D20001F93CF93DF937C01CB018A01209168024E
:100D3000222389F0EB016B01C40ED51ECC15DD0515
:100D400069F06991D701ED91FC910190F081E02D5E
:100D5000C7010995F3CF642F0E94EA07C801DF910C
:100D6000CF911F910F91FF90EF90DF90CF9008955A
:100D7000CF93DF931F92CDB7DEB7698320916802CE
:100D80002223D1F020916902203240F021E030E0AE
:100D9000FC013383228380E090E015C080916A02D9
:100DA000E82FF0E0E559FD4F998190838F5F8093A4
:100DB0006A028093690205C061E0CE0101960E943B
:100DC000EA0781E090E00F90DF91CF910895FC0158
:100DD0001382128248EE53E060E070E04483558352
:100DE0006683778385E591E09183808308951092EF
:100DF0008D0210928C0210926A02109269020C9479
:100E00003507862F413208F040E26EE872E00E941A
:100E1000530710928D0280938C02089521E00C9468
:100E2000010781E08093680260938B0210926A024E
:100E30001092690208950F93062F21E040916902F4
:100E40006BE672E080918B020E94970710926A0213
:100E500010926902109268020F91089561E00C945B
:100E60001B078CE592E00C94E70610921B0381E0CF
:100E7000809319031092180361E082E10E94890AAD
:100E800061E083E10E94890AE9EBF0E080818E7FD6
:100E9000808380818D7F808388E48093B80085E49F
:100EA0008093BC000895413208F03FC090911B032D
:100EB0009111FCCF91E090931B03209319032FEF26
:100EC0002093AE021092F302240F2093F20290932B
:100ED0001A0390911A03880F892B80931A0380912B
:100EE0001803813041F41092180380911A03809303
:100EF000BB0085EC01C085EE8093BC0080911B0394
:100F00008130E1F38091F302841710F44091F302F1
:100F100024EF32E0FB01D9018A2F821B841718F4D9
:100F20008D918193F9CF842F089580E008950F93D8
:100F3000413208F046C090911B039111FCCF92E022
:100F400090931B03009319039FEF9093AE021092AE
:100F5000F3024093F202FB0164EF72E0DB019A2F8F
:100F6000961B941718F491919D93F9CF10921A0340
:100F700090911A03880F892B80931A03809118038C
:100F8000813041F41092180380911A038093BB00C2
:100F900085EC01C085EE8093BC00222321F0809176
:100FA0001B038230E1F38091AE028F3F61F08091AC
:100FB000AE02803251F08091AE02803341F483E082
:100FC00007C081E005C080E003C082E001C084E08A
:100FD0000F910895613298F420911B03243089F415
:100FE0006093D002FC0182ED92E0DC012A2F281BE5
:100FF000261718F421912D93F9CF80E0089581E010
:10100000089582E0089585ED8093BC008091BC0036
:1010100084FDFCCF10921B03089585EC8093BC00E7
:1010200010921B0308951F920F920FB60F92112476
:101030002F933F934F935F936F937F938F939F93E0
:10104000AF93BF93EF93FF938091B900887F803671
:1010500009F49CC068F5883209F45BC090F48031D3
:1010600009F454C038F4882309F4F5C0883009F431
:101070004DC0F5C0883109F44CC0803209F45DC020
:10108000EEC0803409F468C048F4803309F455C0D8
:10109000883309F0E4C08093AE02A8C0803509F41B
:1010A0004FC0883509F45DC0883409F0D8C0D5C078
:1010B000883909F4C6C0A8F4883709F467C038F441
:1010C000883609F463C0803709F460C0C8C0883826
:1010D00009F4B7C0803909F45FC0803809F0BFC097
:1010E0005BC0803B09F485C038F4803A09F466C0DF
:1010F000883A09F47EC0B3C0803C09F4A6C0883C9D
:1011000009F4A3C0883B09F489C0A9C080911A03DF
:1011100010C09091F3028091F202981770F5E0915F
:10112000F30281E08E0F8093F302F0E0EC50FD4F6C
:1011300080818093BB0085EC85C08093AE028DC01A
:10114000E091F30281E08E0F8093F3028091BB0067
:10115000F0E0EC50FD4F80839091F3028091F20219
:101160006DC0E091F30281E08E0F8093F3028091D5
:10117000BB00F0E0EC50FD4F80838091190381119A
:101180006CC081E08093180384EA60C083E08093A0
:101190001B031092AF02CFCF8091AF02803208F0D4
:1011A00050C0E091AF0281E08E0F8093AF0280913A
:1011B000BB00F0E0E055FD4F8083BDCF8091AF02D2
:1011C000803230F4E091AF02F0E0E055FD4F108244
:1011D0000E9403086091AF0270E0E0911403F09167
:1011E000150380EB92E009951092AF020E940D0862
:1011F00036C084E080931B031092D1021092D0027B
:10120000E0911603F091170309958091D0028111A6
:1012100005C081E08093D0021092D202E091D10209
:1012200081E08E0F8093D102F0E0EE52FD4F80817D
:101230008093BB009091D1028091D002981708F45E
:101240007ACF85E88093BC000AC085EC8093BC000F
:1012500010921B0304C01092AE020E940308FF917B
:10126000EF91BF91AF919F918F917F916F915F911E
:101270004F913F912F910F900FBE0F901F90189597
:101280001F920F920FB60F9211242F933F938F93BB
:101290009F93AF93BF9380911D0390911E03A091E4
:1012A0001F03B091200330911C0323E0230F2D373F
:1012B00020F40196A11DB11D05C026E8230F02965A
:1012C000A11DB11D20931C0380931D0390931E0349
:1012D000A0931F03B09320038091210390912203D8
:1012E000A0912303B09124030196A11DB11D809309
:1012F000210390932203A0932303B0932403BF916F
:10130000AF919F918F913F912F910F900FBE0F90B2
:101310001F9018952FB7F89460911D0370911E03CC
:1013200080911F03909120032FBF08953FB7F89439
:101330008091210390912203A0912303B091240373
:1013400026B5A89B05C02F3F19F00196A11DB11D20
:101350003FBF6627782F892F9A2F620F711D811D3D
:10136000911D42E0660F771F881F991F4A95D1F79C
:101370000895CF92DF92EF92FF92CF93DF936B01AC
:101380007C010E949609EB01C114D104E104F1042F
:1013900089F00E94850E0E9496096C1B7D0B683EA9
:1013A000734090F381E0C81AD108E108F108C851F0
:1013B000DC4FEACFDF91CF91FF90EF90DF90CF909D
:1013C00008950197009739F0880F991F880F991F8A
:1013D00002970197F1F70895789484B5826084BDEF
:1013E00084B5816084BD85B5826085BD85B5816029
:1013F00085BDEEE6F0E0808181608083E1E8F0E089
:101400001082808182608083808181608083E0E8B7
:10141000F0E0808181608083E1EBF0E08081846096
:101420008083E0EBF0E0808181608083EAE7F0E098
:1014300080818460808380818260808380818160FC
:1014400080838081806880831092C10008958330FA
:1014500081F028F4813099F08230A1F0089587302E
:10146000A9F08830B9F08430D1F4809180008F7D6C
:1014700003C0809180008F7780938000089584B5A9
:101480008F7702C084B58F7D84BD08958091B000B0
:101490008F7703C08091B0008F7D8093B000089556
:1014A000CF93DF9390E0FC01E458FF4F2491FC01BF
:1014B000E057FF4F8491882349F190E0880F991FEE
:1014C000FC01E854FF4FA591B49182559F4FFC0158
:1014D000C591D4919FB7611108C0F8948C91209563
:1014E00082238C93888182230AC0623051F4F8945D
:1014F0008C91322F309583238C938881822B888323
:1015000004C0F8948C91822B8C939FBFDF91CF9174
:1015100008950F931F93CF93DF931F92CDB7DEB73C
:10152000282F30E0F901E859FF4F8491F901E45880
:10153000FF4F1491F901E057FF4F04910023C9F0C8
:10154000882321F069830E94270A6981E02FF0E057
:10155000EE0FFF1FE255FF4FA591B4919FB7F8948E
:101560008C91611103C01095812301C0812B8C9354
:101570009FBF0F90DF91CF911F910F910895CF934F
:10158000DF93282F30E0F901E859FF4F8491F901EA
:10159000E458FF4FD491F901E057FF4FC491CC2399
:1015A00091F081110E94270AEC2FF0E0EE0FFF1F4F
:1015B000EC55FF4FA591B4912C912D2381E090E043
:1015C00021F480E002C080E090E0DF91CF910895A7
:1015D000CF92DF92EF92FF920F931F93CF93DF93FF
:1015E0006C017A01EB01E60EF71E00E010E0CE156B
:1015F000DF0561F06991D601ED91FC910190F081D8
:10160000E02DC6010995080F191FF1CFC801DF9120
:10161000CF911F910F91FF90EF90DF90CF900895A1
:101620006115710581F0DB010D900020E9F7AD0136
:1016300041505109461B570BDC01ED91FC91028092
:10164000F381E02D099480E090E008950C94100B54
:10165000DC01ED91FC910190F081E02D09948F92D5
:101660009F92AF92BF92CF92DF92EF92FF920F9331
:101670001F93CF93DF93CDB7DEB7A1970FB6F89442
:10168000DEBF0FBECDBF7C01C42EE52FCB01D22E15
:1016900019A221E02D1510F02AE0D22E8E010F5D47
:1016A0001F4F8D2C912CA12CB12C6C2D7E2FA501C0
:1016B00094010E949A0E8C2DD29E80191124015003
:1016C00011098A3014F4805D01C0895CF8018083BF
:1016D000211531054105510521F0C22EE32FCA0124
:1016E000E4CFB801C7010E94100BA1960FB6F89481
:1016F000DEBF0FBECDBFDF91CF911F910F91FF9045
:10170000EF90DF90CF90BF90AF909F908F90089513
:10171000CF92DF92EF92FF920F931F93CF93DF93BD
:10172000EC016A017B012115310579F4E881F98129
:101730000190F081E02D642FDF91CF911F910F91E7
:10174000FF90EF90DF90CF9009942A303105E9F4B3
:1017500077FF1AC06DE20E94280B8C0144275527A1
:10176000BA014C195D096E097F092AE0CE010E9479
:101770002F0B800F911FDF91CF911F910F91FF9041
:10178000EF90DF90CF9008952AE0B701A601CE0137
:10179000DF91CF911F910F91FF90EF90DF90CF904D
:1017A0000C942F0B9A01AB01662757FD6095762F9D
:1017B0000C94880B3F924F925F926F927F928F9220
:1017C0009F92AF92BF92CF92DF92EF92FF920F93D0
:1017D0001F93CF93DF9300D000D0CDB7DEB78B013E
:1017E00029013A0190910001981721F09F3F09F0DB
:1017F000D3C104C0E2ECF0E0349081C080930001DA
:10180000E2ECF0E0E491EF3F09F4C6C1E13031F1E0
:10181000E23009F44BC0E11171C014BC15BC94B5A1
:10182000926094BD95B5916095BD282F30E0F90187
:10183000E057FF4FE491F0E0EE0FFF1FE255FF4F3E
:10184000459154915093350340933403F901E45882
:10185000FF4F249120933303312C53C0109280000A
:1018600010928100909181009860909381009091F6
:101870008100916090938100282F30E0F901E057BA
:10188000FF4FE491F0E0EE0FFF1FE255FF4F45914F
:10189000549150932E0340932D03F901E458FF4FC8
:1018A000249120932C03332433942BC01092B00046
:1018B0001092B1009091B00092609093B00090911E
:1018C000B10091609093B100282F30E0F901E0570A
:1018D000FF4FE491F0E0EE0FFF1FE255FF4F4591FF
:1018E00054915093270340932603F901E458FF4F86
:1018F00024912093250352E0352E03C03E2E37FC61
:101900004BC161E00E94500A4801A12CB12C832DEB
:101910008D7F09F0C0C060E072E18AE790E0A50128
:1019200094010E94BC0E29833A834B835C83690136
:101930007A0181E0C81AD108E108F1089FEFC916C1
:10194000D104E104F10409F008F49AC060E472E4FF
:101950008FE090E0A50194010E94BC0E69017A011C
:10196000E1E0CE1AD108E108F108F2E03F1219C017
:101970008FEFC816D104E104F10409F008F487C020
:1019800060E970ED83E090E0A50194010E94BC0E37
:1019900069017A0191E0C91AD108E108F10883E0F0
:1019A00001C082E0EFEFCE16D104E104F10409F0AA
:1019B00008F467C068E478EE81E090E0A501940146
:1019C0000E94BC0E69017A01F1E0CF1AD108E1084A
:1019D000F1083320E1F082E038121BC09FEFC916F6
:1019E000D104E104F10409F008F4D4C064E274EF16
:1019F00080E090E0A50194010E94BC0E69017A018B
:101A0000E1E0CE1AD108E108F10885E003C083E0E7
:101A100001C084E0FFEFCF16D104E104F10489F1A5
:101A200080F162E17AE780E090E0A50194010E94F4
:101A3000BC0E69017A0181E0C81AD108E108F108F9
:101A4000311002C084E001C086E09FEFC916D104C6
:101A5000E104F104B1F0A8F0C980DA80EB80FC80E9
:101A60009AE0F594E794D794C7949A95D1F7E1E07A
:101A7000CE1AD108E108F108332031F087E008C020
:101A800081E0332011F004C085E085BD34C082E0E0
:101A90008093B10030C060E072E18AE790E0A50178
:101AA00094010E94BC0E69017A01F1E0CF1AD108BD
:101AB000E108F108C114D10481E0E806F10488F0DE
:101AC00068E478EE81E090E0A50194010E94BC0EEC
:101AD00069017A0191E0C91AD108E108F10893E09F
:101AE00001C091E0E1E03E1206C080918100887F54
:101AF000892B80938100411451046104710471F0B9
:101B0000D801AA0FBB1FA30192010E94DB0E28EE91
:101B100033E040E050E00E949A0E03C02FEF3FEF09
:101B2000A901F1E03F16A1F082E0381619F1311059
:101B300033C0C7BC20933603309337034093380338
:101B40005093390380916E00826080936E0024C0B0
:101B5000D0928900C092880020932F0330933003E5
:101B6000409331035093320380916F0082608093E1
:101B70006F0012C0C092B300209328033093290352
:101B800040932A0350932B038091700082608093CE
:101B9000700002C084E07CCF0F900F900F900F90E8
:101BA000DF91CF911F910F91FF90EF90DF90CF9039
:101BB000BF90AF909F908F907F906F905F904F906D
:101BC0003F900895813039F018F0823051F0089537
:101BD00010926E00089580916F008D7F80936F004A
:101BE0000895809170008D7F8093700081E08093D4
:101BF000B0008091B100887F84608093B100109222
:101C0000B3000895CF93C82F809100018C1307C0B3
:101C1000E2ECF0E084919FEF9093000101C08FEF20
:101C20000E94E20D60E08C2FCF910C94890A1F92E4
:101C30000F920FB60F9211242F933F934F935F9300
:101C40006F937F938F939F93AF93BF93EF93FF9384
:101C50008091280390912903A0912A03B0912B032E
:101C6000892B8A2B8B2B51F190912503E091260330
:101C7000F0912703808189278083809128039091A8
:101C80002903A0912A03B0912B03181619061A06EE
:101C90001B06C4F48091280390912903A0912A0384
:101CA000B0912B030197A109B10980932803909368
:101CB0002903A0932A03B0932B0304C08091000151
:101CC0000E94020EFF91EF91BF91AF919F918F9172
:101CD0007F916F915F914F913F912F910F900FBE28
:101CE0000F901F9018950E94FB0E08950E94EC091A
:101CF0000E94750E0E94FD00C0E0D0E00E94260107
:101D00002097E1F30E940000F9CF0895AA1BBB1BA6
:101D100051E107C0AA1FBB1FA617B70710F0A61BEB
:101D2000B70B881F991F5A95A9F780959095BC010C
:101D3000CD010895A1E21A2EAA1BBB1BFD010DC007
:101D4000AA1FBB1FEE1FFF1FA217B307E407F5076B
:101D500020F0A21BB30BE40BF50B661F771F881F47
:101D6000991F1A9469F760957095809590959B01DD
:101D7000AC01BD01CF010895052E97FB1EF4009420
:101D80000E94D30E57FD07D00E949A0E07FC03D085
:101D90004EF40C94D30E50954095309521953F4FBD
:101DA0004F4F5F4F089590958095709561957F4F47
:101DB0008F4F9F4F08950E94EC0EA59F900DB49FEA
:101DC000900DA49F800D911D11240895EE0FFF1F0B
:101DD0000590F491E02D0994A29FB001B39FC0013A
:101DE000A39F700D811D1124911DB29F700D811D47
:101DF0001124911D089581E090E0F8940C94000F57
:041E0000F894FFCF84
:101E0400FF0100020003002F0052656C6F616469DA
:101E14006E672E2E0020202020202020202020202D
:101E240000236C61736572546167004D61673A20E9
:101E340000000000009E02E80A0E039C029D02734B
:101E44000E000000009E02E80A960487039B0378B4
:101E54000400000000B8068B06600668067B068A4C
:021E6400060076
:00000001FF
